:04000000D0EF03F04A
:1000080000C015F0F2A209D0315206E1010E1F6EB0
:100018000A0E396E000E3A6EF292F0A009D03152F3
:1000280006E1020E1F6E3C0E396E000E3A6EF0901D
:10003800F0A216D0800E000A006E800E1F18005C19
:100048000EE231520CE1010E316E1F50010A04E13B
:10005800310ECD6E9D8003D0840ED56EF28AF0925B
:10006800F2A412D00B0ED76EDC0ED66E800E006E88
:10007800800E3A18005C02E13950000804E2010ED3
:10008800395E000E3A5AF2949EA01FD00B0ECF6E26
:10009800DC0ECE6E4D4A4E2A800E4E18006E800E33
:1000A800005C02E1040E4D5C0FE34D6A4E6A800E5F
:1000B800006E800E3A18005C02E13950000804E234
:1000C800010E395E000E3A5A9E9015C000F01100DC
:0A00D800210E0D6E0D2EFED7120052
:1000E2000F0E0C6E470E0D6E0D2EFED70C2EFCD78A
:0600F200000000001200F6
:0600F800000000001200F0
:1000FE00000196BF02D08C9601D08C8696BD02D0A0
:10010E008C9401D08C8496BB02D08C9201D08C82C0
:10011E0096B902D08C9001D08C8071B102D08C88AF
:10012E0001D08C988C8AE1DF8C9A96B702D08C968F
:10013E0001D08C8696B502D08C9401D08C8496B367
:10014E0002D08C9201D08C8296B102D08C9001D0CC
:10015E008C8071B102D08C8801D08C988C8AC5DFCE
:0E016E008C9A71A102D0B6DF01D0AFDF120073
:0E017C000001719195C096F0BCDF71811200F8
:10018A000134083609360450085E0550D8A0053CEB
:10019A00095E003601360F0E0C6E01340836093638
:1001AA00045000A006D0085E0550D8A0053C095EA0
:1001BA0005D008260550D8B0053C09260036013678
:1001CA000C2EEBD700B006D0045008260550D8B044
:0801DA00053C0926000012009B
:0C01E2000E0E0D6E0D2EFED70000120058
:1001EE000B6A0A6A096A086A0E6A033408360450F2
:1001FE00085E0550D8A0053C095E0650D8A0063C06
:10020E000A5E0750D8A0073C0B5EE86AD8A0010E24
:10021E000E5E0336070E0C6E0334083609360A36A8
:10022E000B360E36045003A012D0085E0550D8A02F
:10023E00053C095E0650D8A0063C0A5E0750D8A0C1
:10024E00073C0B5EE86AD8A0010E0E5E11D00826A0
:10025E000550D8B0053C09260650D8B0063C0A26F3
:10026E000750D8B0073C0B26E86AD8B0010E0E2610
:10027E0003360C2ED1D70234083609360A360B3621
:10028E000E36045003A012D0085E0550D8A0053CCF
:10029E00095E0650D8A0063C0A5E0750D8A0073C5F
:1002AE000B5EE86AD8A0010E0E5E11D0082605502E
:1002BE00D8B0053C09260650D8B0063C0A26075091
:1002CE00D8B0073C0B26E86AD8B0010E0E260236CF
:1002DE00070E0C6E0234083609360A360B360E3609
:1002EE00045002A012D0085E0550D8A0053C095E4D
:1002FE000650D8A0063C0A5E0750D8A0073C0B5EFD
:10030E00E86AD8A0010E0E5E11D008260550D8B0AE
:10031E00053C09260650D8B0063C0A260750D8B030
:10032E00073C0B26E86AD8B0010E0E2602360C2EBC
:10033E00D1D70134083609360A360B360E3604503C
:10034E0002A012D0085E0550D8A0053C095E0650EA
:10035E00D8A0063C0A5E0750D8A0073C0B5EE86AA0
:10036E00D8A0010E0E5E11D008260550D8B0053C5F
:10037E0009260650D8B0063C0A260750D8B0073CCE
:10038E000B26E86AD8B0010E0E260136070E0C6E4B
:10039E000134083609360A360B360E36045001A0E3
:1003AE0012D0085E0550D8A0053C095E0650D8A0B4
:1003BE00063C0A5E0750D8A0073C0B5EE86AD8A040
:1003CE00010E0E5E11D008260550D8B0053C092648
:1003DE000650D8B0063C0A260750D8B0073C0B266C
:1003EE00E86AD8B0010E0E2601360C2ED1D7003495
:1003FE00083609360A360B360E36045001A012D0D6
:10040E00085E0550D8A0053C095E0650D8A0063CF3
:10041E000A5E0750D8A0073C0B5EE86AD8A0010E12
:10042E000E5E11D008260550D8B0053C09260650A0
:10043E00D8B0063C0A260750D8B0073C0B26E86A0F
:10044E00D8B0010E0E260036070E0C6E003408369C
:10045E0009360A360B360E36045000A012D0085E4E
:10046E000550D8A0053C095E0650D8A0063C0A5E91
:10047E000750D8A0073C0B5EE86AD8A0010E0E5EAE
:10048E0011D008260550D8B0053C09260650D8B024
:10049E00063C0A260750D8B0073C0B26E86AD8B0AF
:1004AE00010E0E2600360C2ED1D700B00ED0045001
:1004BE0008260550D8B0053C09260650D8B0063C93
:0C04CE000A260750D8B0073C0B2612008D
:1004DA000450000A08E10550000A05E1FF0E006E0B
:1004EA007F0E016E57D00D6A096A086A0150001022
:1004FA00D8B4000C015005180A6E0ABE0D1E0B6A0C
:10050A0005AE05D0041E051E042AD8B4052A01AE7C
:10051A0005D0001E011E002AD8B4012A0150051078
:10052A000A6E0ABE10D02CDE0BB020D00DAE000C25
:10053A00001E011E002AD8B4012A081E091E082A14
:10054A00D8B4092A000C05AE0DD001BE07D001505F
:10055A00096E0050086E016A006AE8D7016A006AEB
:10056A00002A000C011E001E0B2ADDD7082AD8B467
:10057A00092A0450085CD8A4D9D70550095CD8A424
:10058A00D5D7096A086A002AD8B4012A01AECED79B
:06059A000000FF0C12003E
:1005A000830EC21690C000F0003600900036009016
:1005B0000050C21216DEC282C2A201D0FDD7C4CF43
:0E05C00001F0006AC3500012000E011212007A
:1005CE00959A959895909592959495968C9A8C98D7
:1005DE008C968C948C928C907DDD7CDD7BDD8C8278
:1005EE008C808C8A82DD8C9A75DD8C8A7EDD8C9A6D
:1005FE0071DD8C8A7ADD8C9A6DDD8C908C8A75DD3E
:10060E008C9A68DD8C8A71DD8C9A8C928C868C8AA1
:10061E006CDD8C9A5FDD8C968C808C8A66DD8C9A74
:10062E008C908C8A62DD8C9A55DD8C8A5EDD8C9A7C
:10063E008C808C8A5ADD8C9A4DDD8C908C8A55DD9F
:10064E008C9A8C868C848C828C808C8A4EDD8C9AD3
:08065E0041DD00017181120071
:100666000900F5CFE6FF0006FBE10106F9E11200FD
:10067600A00E0001726F050E736F900E746F000E60
:10068600756FC26A4C1C006E0050C116070EC01270
:06069600C08EC2801200BC
:10069C00086A096A100E0C6E0134083609360450CB
:1006AC00085E0550D8A0053C095ED8B007D00450B0
:1006BC0008260550D8B0053C0926D89000360136DE
:0606CC000C2EEAD712001B
:1006D2000B6A0A6A096A00500402F4CF09F0F3CFE8
:1006E20008F001500502F4CF0BF0F3CF0AF00050EE
:1006F2000502F3500926F4500A22E86A0B2201503F
:100702000402F3500926F4500A22E86A0B2208C0B8
:1007120000F009C001F00AC002F00BC003F01200A1
:1007220010D0800E0001906F1AD0C00E906F17D0BB
:10073200940E906F14D0D40E906F11D0800E906FE3
:100742000ED000019051010AECE09051020AEDE056
:100752009051030AEDE09051040AEDE0EFD79105C4
:10076200006E9051002600C090F000C096F0C6DCEA
:100772007191946B94519225E96E000E9321EA6E69
:10078200EE520BE094519225E96E000E9321EA6E2F
:0E079200EECF95F0F2DC942BEDD771811200C2
:1007A00000EC05F0FF0E926EFF0E936E9490829017
:1007B000F18CF18AF188F288F086F088F28EF28C62
:1007C00006DF010E966F9BDC0C0E966F98DC53DFF4
:1007D0003B0EC16E3152D8B4ABD0906BE1DE00C09D
:1007E00076F001C077F0640E046E000E056E71DFC6
:1007F000FF0E046E030E056E51DF00C078F001C0DD
:1008000079F0000E00017A6F7B6F0A0E046E000E05
:10081000056E066E076E78C000F079C001F07AC0F0
:1008200002F07BC003F0E3DC300E002600C07CF059
:100830000A0E046E000E056E066E076E78C000F09C
:1008400079C001F07AC002F07BC003F0D0DC08C0B0
:1008500000F009C001F00AC002F00BC003F0300E36
:1008600000247D6FDF0E7E6F430E7F6F806B010E65
:10087000906F010E916F320E926F000E936F51DFE9
:10088000010E906F070E916F7C0E926F000E936FAA
:1008900048DF0A0E046E000E056E39C000F03AC043
:1008A00001F01BDE300E002600C086F00A0E046E3A
:1008B000000E056E39C000F03AC001F00EDE08C02F
:1008C00000F009C001F0300E00240001876F730EA4
:1008D000886F896B020E906F010E916F160E926FEA
:1008E000000E936F1EDF020E906F090E916F860E41
:1008F000926F000E936F15DF7751010802E1765178
:10090000FF0802E2828001D08290800E006E800E8D
:100910003A18005C02E13950000809E3316A1F6AA5
:100920008290F29A9D90010E966F7FEC00F02CD091
:10093000010E906F010E916F200E926F000E936F5B
:10094000F0DE1F50010A0AE1020E906F010E916F56
:100950003B0E926F000E936FE4DE16D01F50020A1A
:100960000AE1020E906F010E916F4F0E926F000E12
:10097000936FD7DE09D0020E906F010E916F600E5B
:10098000926F000E936FCDDE030E0B6E080E0C6E91
:10099000770E0D6E0D2EFED70C2EFCD70B2EFAD730
:0409A00019D7FFD78D
:100A000010EE16F05B0E006E010E016EA40EF66E77
:0E0A1000090EF76E000EF86E33EC03F01200C4
:0909A40046616C74616D3A20009B
:0109AD000049
:1009AE0053656C6563696F6E652074656D706F3A23
:0109BE000038
:0109BF000037
:0709C00054656D703A200040
:0209C70000002E
:1009C900437572746F3A2031307320202020202023
:0109D900001D
:0109DA0030EC
:0209DB0000001A
:1009DD004C6F6E676F3A2036307320202020202018
:0109ED000009
:1009EE0020202020202020202020202020202020F9
:0109FE0000F8
:020000040030CA
:0E000000000C1F1EFF8381FF0FC00FE00F409A
:00000001FF
